:100000009BCCB5CCB4CCB3CC6BCFB1CCB0CCAFCC5B
:10001000AECCADCCACCCABCCAACCA9CCA8CCA7CC2C
:10002000A6CC653030733530733730733830733960
:10003000307335317337317339317335327336324A
:10004000733732733932653066733564733664736F
:100050003764733864733964733565733965733520
:1000600066733666733766733866733966653066ED
:10007000733539733639733739733839733939739E
:100080003561733961733562733662733762733801
:10009000627339626530667335357336357337355B
:1000A000733835733935733536733936733537737D
:1000B000363773373773383773393765306673358A
:1000C00030733630733730733830733930733531BD
:1000D0007339317335327336327337327338327362
:1000E0003932653730733638733838653066733572
:1000F000357336357337357338357339357335366F
:100100007339367335377336377337377338377318
:100110003937653030733539733639733739733958
:10012000397335617337617339617335627337625F
:100130007338627339626530667335397336397373
:1001400037397338397339397335617339617335B8
:100150006273366273376273386273396265303046
:1001600073356473366473376473396473356573D8
:1001700037657339657335667336667337667338FA
:1001800066733966653066733564733664733764D5
:1001900073386473396473356573396573356673A1
:1001A000366673376673386673396677314443341D
:1001B00065303073356473366473376473386473D1
:1001C00039647335657339657335667336667337AD
:1001D000667338667339666530667335667336667E
:1001E00073376673386673396677314443346530E4
:1001F000307335667336667337667338667339667F
:100200006530667335647337647338647339647347
:10021000356573376573396573356673366673375D
:1002200066733966773144433465303073356473AF
:10023000376473386473396473356573376573393C
:10024000657335667336667337667339666530660F
:1002500073356473376473396473356573376573E5
:100260003965733566733666733766733866733906
:100270006677314443346530307335647337647363
:1002800039647335657337657339657335667336ED
:1002900066733766733866733966653066733564BE
:1002A0007336647337647337657335667336667394
:1002B0003766733866733966773144433465303056
:1002C0007335647336647337647337657335667377
:1002D00036667337667338667339666530667335AC
:1002E0006473366473376473396473356573376563
:1002F0007339657335667337667338667339667735
:100300003144433465303073356473366473376415
:10031000733964733565733765733965733566731F
:10032000376673386673396665306673356473365D
:100330006473376473386473396473356573376510
:1003400073396573356673376673386673396677E4
:1003500031444334653030733564733664733764C5
:1003600073386473396473356573376573396573CE
:10037000356673376673386673396665306673350C
:1003800064733565733566733666733766733866BE
:10039000733966773144433465303073356473356F
:1003A0006573356673366673376673386673396698
:1003B0006530667335647336647337647338647399
:1003C00039647335657337657339657335667336AC
:1003D00066733766733866733966773144433465BC
:1003E00030307335647336647337647338647339CB
:1003F000647335657337657339657335667336664F
:10040000733766733866733966653066733564733F
:10041000366473376473396473356573376573395C
:100420006573356673366673376673386673396617
:100430007731444334653030733539733639733727
:10044000397338397339397335617339617335628A
:1004500073366273376273386273396265306673FC
:10046000356273366273376273386273396265302E
:100470003073356473366473376473396473356508
:1004800073376573396573356673366673376673AC
:1004900038667339666530667335647336647337EE
:1004A000647338647339647335657339657335669D
:1004B00073366673376673386673396677314443CB
:1004C00034653030733564733664733764733864FD
:1004D000733964733565733965733566733666735E
:1004E000376673386673396665306673356673369A
:1004F000667337667338667339667731444334659B
:1005000030307335667336667337667338667339A1
:100510006665306673356473376473386473396441
:10052000733565733765733965733566733666730E
:1005300037667339667731444334653030733564D8
:1005400073376473386473396473356573376573EF
:100550003965733566733666733766733966653029
:1005600066733564733764733964733565733765DF
:1005700073396573356673366673376673386673B9
:10058000396677314443346530307335647337648A
:10059000733964733565733765733965733566739D
:1005A00036667337667338667339666530667335D9
:1005B0006473366473376473376573356673366690
:1005C0007337667338667339667731444334653000
:1005D00030733564733664733764733765733566A7
:1005E000733666733766733866733966653066735B
:1005F0003564733664733764733964733565733780
:100600006573396573356673376673386673396633
:1006100077314443346530307335647336647337EF
:10062000647339647335657337657339657335661B
:10063000733766733866733966653066733564730D
:10064000366473376473386473396473356573372C
:1006500065733965733566733766733866733966E3
:10066000773144433465303073356473366473379F
:1006700064733864733964733565733765733965CA
:1006800073356673376673386673396665306673BB
:1006900035647335657335667336667337667338DC
:1006A000667339667731444334653030733564732B
:1006B00035657335667336667337667338667339B6
:1006C0006665306673356473366473376473386493
:1006D000733964733565733765733965733566735C
:1006E00036667337667338667339667731444334D8
:1006F000653030733564733664733764733864738C
:100700003964733565733765733965733566733668
:100710006673376673386673396665306673356439
:10072000733664733764733964733565733765730F
:100730003965733566733666733766733866733931
:100740006677314443346530307335627336627393
:10075000376273386273396265306673353973375F
:100760003973383973393973356173376173396166
:100770007335627336627337627339626530307312
:1007800035647336647337647339647335657337EE
:1007900065733965733566733666733766733866A5
:1007A00073396665306673356473366473376473A2
:1007B00038647339647335657339657335667336B8
:1007C00066733766733866733966773144433465C8
:1007D00030307335647336647337647338647339D7
:1007E000647335657339657335667336667337665A
:1007F000733866733966653066733566733666734B
:100800003766733866733966773144433465303000
:100810007335667336667337667338667339666523
:100820003066733564733764733864733964733551
:100830006573376573396573356673366673376606
:1008400073396677314443346530307335647337B8
:1008500064733864733964733565733765733965E8
:1008600073356673366673376673396665306673DB
:1008700035647337647339647335657337657339F9
:1008800065733566733666733766733866733966B3
:10089000773144433465303073356473376473396A
:1008A000647335657337657339657335667336669A
:1008B000733766733866733966653066733564738B
:1008C00036647337647337657335667336667337AA
:1008D00066733866733966773144433465303073F4
:1008E000356473366473376473376573356673368E
:1008F0006673376673386673396665306673356458
:10090000733664733764733964733565733765732D
:100910003965733566733766733866733966773150
:1009200044433465303073356473366473376473AD
:100930003964733565733765733965733566733735
:10094000667338667339666530667335647336640A
:1009500073376473386473396473356573376573DB
:100960003965733566733766733866733966773100
:10097000444334653030733564733664733764735D
:1009800038647339647335657337657339657335E6
:1009900066733766733866733966653066733564B7
:1009A0007335657335667336667337667338667389
:1009B0003966773144433465303073356473356557
:1009C0007335667336667337667338667339666572
:1009D000306673356473366473376473386473399F
:1009E0006473356573376573396573356673366659
:1009F00073376673386673396677314443346530CC
:100A00003073356473366473376473386473396470
:100A10007335657337657339657335667336667319
:100A20003766733866733966653066733564733656
:100A30006473376473396473356573376573396507
:100A400073356673366673376673386673396677DF
:100A5000314443346530307335397337397338393D
:100A60007339397335617337617339617335627303
:100A7000366273376273396265306673353973373E
:100A8000397339397335617337617339617335621D
:100A900073366273376273386273396265303073EC
:100AA00035647336647337647339647335657337CB
:100AB0006573396573356673366673376673386682
:100AC000733966653066733564733664733764737F
:100AD0003864733964733565733965733566733695
:100AE00066733766733866733966773144433465A5
:100AF00030307335647336647337647338647339B4
:100B00006473356573396573356673366673376636
:100B10007338667339666530667335667336667327
:100B200037667338667339667731444334653030DD
:100B30007335667336667337667338667339666500
:100B4000306673356473376473386473396473352E
:100B500065733765733965733566733666733766E3
:100B60007339667731444334653030733564733795
:100B700064733864733964733565733765733965C5
:100B800073356673366673376673396665306673B8
:100B900035647337647339647335657337657339D6
:100BA0006573356673366673376673386673396690
:100BB0007731444334653030733564733764733947
:100BC0006473356573376573396573356673366677
:100BD0007337667338667339666530667335647368
:100BE0003664733764733765733566733666733787
:100BF00066733866733966773144433465303073D1
:100C0000356473366473376473376573356673366A
:100C10006673376673386673396665306673356434
:100C2000733664733764733964733565733765730A
:100C3000396573356673376673386673396677312D
:100C4000444334653030733564733664733764738A
:100C50003964733565733765733965733566733712
:100C600066733866733966653066733564733664E7
:100C700073376473386473396473356573376573B8
:100C800039657335667337667338667339667731DD
:100C9000444334653030733564733664733764733A
:100CA00038647339647335657337657339657335C3
:100CB0006673376673386673396665306673356494
:100CC0007335657335667336667337667338667366
:100CD0003966773144433465303073356473356534
:100CE000733566733666733766733866733966654F
:100CF000306673356473366473376473386473397C
:100D00006473356573376573396573356673366635
:100D100073376673386673396677314443346530A8
:100D2000307335647336647337647338647339644D
:100D300073356573376573396573356673366673F6
:100D40003766733866733966653066733564733633
:100D500064733764733964733565733765733965E4
:100D600073356673366673376673386673396677BC
:100D70003144433465303073353973373973393919
:100D800073356173376173396173356273366273BA
:100D9000376273386273396265306673353973361A
:100DA00039733739733761733562733662733762FB
:100DB00073386273396265303073356473366473C7
:100DC00037647339647335657337657339657335A3
:100DD0006673366673376673386673396665306670
:100DE000733564733664733764733864733964734A
:100DF0003565733965733566733666733766733870
:100E000066733966773144433465303073356473C3
:100E10003664733764733864733964733565733952
:100E2000657335667336667337667338667339660D
:100E30006530667335667336667337667338667306
:100E400039667731444334653030733566733666BE
:100E500073376673386673396665306673356473E5
:100E60003764733864733964733565733765733900
:100E700065733566733666733766733966773144E2
:100E80004334653030733564733764733864733951
:100E900064733565733765733965733566733666A4
:100EA0007337667339666530667335647337647398
:100EB00039647335657337657339657335667336B1
:100EC00066733766733866733966773144433465C1
:100ED00030307335647337647339647335657337D1
:100EE000657339657335667336667337667338664E
:100EF000733966653066733564733664733764734B
:100F0000376573356673366673376673386673395B
:100F100066773144433465303073356473366473B7
:100F2000376473376573356673366673376673383F
:100F30006673396665306673356473366473376417
:100F400073396473356573376573396573356673E3
:100F500037667338667339667731444334653030A9
:100F600073356473366473376473396473356573CA
:100F700037657339657335667337667338667339E9
:100F800066653066733564733664733764733864CA
:100F90007339647335657337657339657335667393
:100FA0003766733866733966773144433465303059
:100FB0007335647336647337647338647339647378
:100FC000356573376573396573356673376673389E
:100FD0006673396665306673356473356573356677
:100FE0007336667337667338667339667731444390
:100FF00034653030733564733565733566733666C2
:101000007337667338667339666530667335647333
:101010003664733764733864733964733565733752
:10102000657339657335667336667337667338660C
:1010300073396677314443346530307335647336C1
:1010400064733764733864733964733565733765F3
:1010500073396573356673366673376673386673CE
:101060003966653066733564733664733764733913
:1010700064733565733765733965733566733666C2
:101080007337667338667339667731444334653035
:101090003073353973363973373973376173356265
:1010A00073366273376273386273396265306673A0
:1010B0003539733639733739733939733561733765
:1010C0006173396173356273376273386273396281
:1010D00065303073356473366473376473396473A1
:1010E000356573376573396573356673366673377F
:1010F0006673386673396665306673356473366453
:101100007337647338647339647335657339657321
:10111000356673366673376673386673396677314A
:1011200044433465303073356473366473376473A5
:10113000386473396473356573396573356673362E
:1011400066733766733866733966653066733566FD
:10115000733666733766733866733966773144431E
:101160003465303073356673366673376673386648
:1011700073396665306673356473376473386473C6
:1011800039647335657337657339657335667336DE
:10119000667337667339667731444334653030732C
:1011A00035647337647338647339647335657337C2
:1011B000657339657335667336667337667339667A
:1011C000653066733564733764733964733565737A
:1011D000376573396573356673366673376673388A
:1011E00066733966773144433465303073356473E0
:1011F000376473396473356573376573396573356F
:10120000667336667337667338667339666530663B
:101210007335647336647337647337657335667317
:10122000366673376673386673396677314443348C
:101230006530307335647336647337647337657340
:10124000356673366673376673386673396665302C
:1012500066733564733664733764733964733565E4
:1012600073376573396573356673376673386673BC
:10127000396677314443346530307335647336648E
:1012800073376473396473356573376573396573A0
:1012900035667337667338667339666530667335DD
:1012A0006473366473376473386473396473356593
:1012B000733765733965733566733766733866736C
:1012C000396677314443346530307335647336643E
:1012D0007337647338647339647335657337657352
:1012E000396573356673376673386673396665308A
:1012F0006673356473356573356673366673376642
:1013000073386673396677314443346530307335EA
:10131000647335657335667336667337667338661E
:101320007339666530667335647336647337647316
:10133000386473396473356573376573396573352C
:101340006673366673376673386673396677314409
:10135000433465303073356473366473376473387F
:1013600064733964733565733765733965733566CE
:1013700073366673376673386673396665306673BD
:1013800035647336647337647339647335657337E2
:101390006573396573356673366673376673386699
:1013A000733966773144433465303073353573367D
:1013B0003573373573383573393573353673393698
:1013C0007335377336377337377338377339376553
:1013D0003066733537733637733737733837733949
:1013E0003765303073353973363973373973393976
:1013F0007335617337617339617335627337627343
:1014000038627339626530667335397336397337CC
:1014100039733839733939733561733961733562AA
:101420007336627337627338627339626530307352
:101430003564733664733764733964733565733731
:1014400065733965733566733666733766733866E8
:1014500073396665306673356473366473376473E5
:1014600038647339647335657339657335667336FB
:10147000667337667338667339667731444334650B
:10148000303073356473366473376473386473391A
:10149000647335657339657335667336667337669D
:1014A000733866733966653066733566733666738E
:1014B0003766733866733966773144433465303044
:1014C0007335667336667337667338667339666567
:1014D0003066733564733764733864733964733595
:1014E000657337657339657335667336667337664A
:1014F00073396677314443346530307335647337FC
:10150000647338647339647335657337657339652B
:10151000733566733666733766733966653066731E
:10152000356473376473396473356573376573393C
:1015300065733566733666733766733866733966F6
:1015400077314443346530307335647337647339AD
:1015500064733565733765733965733566733666DD
:1015600073376673386673396665306673356473CE
:1015700036647337647337657335667336667337ED
:101580006673386673396677314443346530307337
:1015900035647336647337647337657335667336D1
:1015A000667337667338667339666530667335649B
:1015B0007336647337647339647335657337657371
:1015C0003965733566733766733866733966773194
:1015D00044433465303073356473366473376473F1
:1015E0003964733565733765733965733566733779
:1015F000667338667339666530667335647336644E
:10160000733764733864733964733565733765731E
:101610003965733566733766733866733966773143
:1016200044433465303073356473366473376473A0
:101630003864733964733565733765733965733529
:1016400066733766733866733966653066733564FA
:1016500073356573356673366673376673386673CC
:10166000396677314443346530307335647335659A
:1016700073356673366673376673386673396665B5
:1016800030667335647336647337647338647339E2
:10169000647335657337657339657335667336669C
:1016A000733766733866733966773144433465300F
:1016B00030733564733664733764733864733964B4
:1016C000733565733765733965733566733666735D
:1016D000376673386673396665306673356473369A
:1016E000647337647339647335657337657339654B
:1016F0007335667336667337667338667339667723
:101700003144433465303073353973363973373982
:10171000733839733939733561733961733562736D
:101720003662733762733862733962653066733557
:101730006273366273376273386273396265303050
:1017400073356473366473376473396473356573E2
:101750003765733965733566733666733766733804
:1017600066733966653066733564733664733764DF
:1017700073386473396473356573396573356673AB
:101780003666733766733866733966773144433427
:1017900065303073356473366473376473386473DB
:1017A00039647335657339657335667336667337B7
:1017B0006673386673396665306673356673366688
:1017C00073376673386673396677314443346530EE
:1017D0003073356673366673376673386673396689
:1017E0006530667335647337647338647339647352
:1017F0003565733765733965733566733666733768
:1018000066733966773144433465303073356473B9
:101810003764733864733964733565733765733946
:101820006573356673366673376673396665306619
:1018300073356473376473396473356573376573EF
:101840003965733566733666733766733866733910
:10185000667731444334653030733564733764736D
:1018600039647335657337657339657335667336F7
:1018700066733766733866733966653066733564C8
:10188000733664733764733765733566733666739E
:101890003766733866733966773144433465303060
:1018A0007335647336647337647337657335667381
:1018B00036667337667338667339666530667335B6
:1018C000647336647337647339647335657337656D
:1018D000733965733566733766733866733966773F
:1018E0003144433465303073356473366473376420
:1018F000733964733565733765733965733566732A
:101900003766733866733966653066733564733667
:10191000647337647338647339647335657337651A
:1019200073396573356673376673386673396677EE
:10193000314443340000000011241FBECFE5D2E043
:10194000DEBFCDBF10E0A0E6B0E0ECEAFFE102C0F0
:1019500005900D92A039B107D9F722E0A0E9B0E0D7
:1019600001C01D92AA31B207E1F7CDD11DC348C312
:101970003091900082E290E020E0231779F0019608
:10198000FC013197E491E11105C01092900082E2D0
:1019900090E004C0E83789F72F5FEFCF909396006F
:1019A0008093950010929900109298000895982FB6
:1019B00080ED890F8A3070F08FE9890F863010F43E
:1019C00089EA05C08FEB890F863018F489EC890FFE
:1019D000089580E00895CF92DF92EF92FF920F93E7
:1019E0001F93CF93DF93E82E0091950010919600FE
:1019F0006801F82E80E090E0FA94EFEFFE1691F087
:101A0000F6012491EC0184E0CC0FDD1F8A95E1F70B
:101A1000822FCDDF9E01280F311DC9013FEFC31A70
:101A2000D30AEACF0E0D111D109396000093950076
:101A3000DF91CF911F910F91FF90EF90DF90CF90AA
:101A400008956F927F929F92AF92BF92CF92DF9252
:101A5000EF92FF920F931F93CF93DF9320E1A22E7B
:101A6000B12C612C772473940AE911E080919800DD
:101A700090919900009709F0C6C0E0919500F0910F
:101A80009600CF0101969093960080939500E49183
:101A9000E83711F0E1110EC0DF91CF911F910F9146
:101AA000FF90EF90DF90CF90BF90AF909F907F908E
:101AB0006F905ECFE03749F150F4E136E9F0E5365A
:101AC00009F09FC082E087DF80939700CFCFE33794
:101AD00051F0E73709F095C084E07DDF90939900DD
:101AE00080939800C3CF82E076DF86569F4F209187
:101AF0009700DC012C93BACF80919700EAE9F0E0DF
:101B000081930E171F07E1F7B1CF82E064DFB82F92
:101B1000BF70DB2EFC01FF2784FD09C09F0194E00C
:101B2000220F331F9A95E1F7E5FD28C024C0C12C90
:101B30006B2F70E0E501C61BD70B66567F4F912CCB
:101B40004C2D4295407F50E0292D30E02C173D0769
:101B50006CF4240F351F7B01E20EF31ED701FC90BD
:101B600026563F4FD901FC929394EECFC394B0E137
:101B7000CB12E5CFD3CFE6FD16C02FC0AAE9B0E067
:101B8000B90177277301E61AF70A66567F4FAD0150
:101B90004A5950404E155F0574F7460F571FEA012A
:101BA00048814D93F4CF60E0ED2CF12C7FE0462F7F
:101BB0004295407F50E0FA01E70FF11DDF01AE19B9
:101BC000BF09A656BF4FAC91E656FF4FA083715098
:101BD0007D1588F76F5F603149F787FF47CFAAE926
:101BE000B1E08FEF90E03327821793070CF43ECFDC
:101BF000FC01E21BF30BE656FF4F40814E93019729
:101C0000F3CFB6DE33CF8F3FDFEF9D0729F001978B
:101C10009093990080939800809191008370C1F512
:101C200030E040E2E32FF0E0E656FF4F908194FF72
:101C30001FC0892F8F70292F207F95FF0CC08F5FC9
:101C4000582F507F99F096FF02C0242702C0292FF9
:101C5000207E8FE00BC08150582F507F39F096FFC7
:101C600002C0242702C0292F207E80E0822B80839F
:101C70003F5FC1F6DF91CF911F910F91FF90EF90E1
:101C8000DF90CF90BF90AF909F907F906F90A8C053
:101C9000DF91CF911F910F91FF90EF90DF90CF9048
:101CA000BF90AF909F907F906F90089558D082E240
:101CB00090E0909396008093950010929900109276
:101CC00098007894089590919100809191009817D0
:101CD000E1F30895F89419BE1ABA17BA14BA11BAF2
:101CE00016B81BBA18BA15BA84E082BB17B885B704
:101CF0008C7F85BF1ABE80E48BBF789485B78062E5
:101D000085BF88950895D2DFC4E1DDDFC150E9F7D2
:101D1000809192008111FCCFC4E1D5DFC150E9F779
:101D2000809192008823C1F01AD0CDDFC0E080916D
:101D30009200882339F0C7DF81E08C0F09F48C2FE3
:101D4000C82FF5CFC33308F0C5DFBDDF8091900009
:101D50008F5F809390000CDE74DEB5DFE1CF85B736
:101D60008F7D85BF85B7806185BF84B78F7D84BF38
:101D700086B78F7786BF1BBEEAE9F1E08FEF8083DD
:101D80008183828383838483858386838783389654
:101D900092E0EA31F90799F7EAE9F0E08AE991E09F
:101DA00011928E179F07E1F78FEF8ABB9FE197BBD8
:101DB00084BB81BB27E026B92BBB98BB15BA82BB7D
:101DC00017B81FBC88E08EBD1DBC1CBC80E091E034
:101DD0009BBD8ABD80E489BF88BF89E08EBD089520
:101DE0002F923F924F925F926F927F928F929F922B
:101DF000BF92CF92DF92EF92FF920F931F93CF93F8
:101E0000DF93EAE9F1E0A0E0B0E080E9E82E80E0CD
:101E1000F82EBB24B39480E8282E80E0382E60E0B2
:101E200070E040E050E020E030E080E090E0ED0144
:101E3000C656DF4F2E01E101D9901E0182010D0D22
:101E4000111DE801D880880F991FDD2DD170CD2E8E
:101E5000CB248C29220F331FCD2CC694CB24C0FA5F
:101E6000662460F8712C26293729440F551FCD2C84
:101E7000C694C694CB24C0FA882480F8912C4829B3
:101E80005929660F771FD694D694D694DB240D2D4E
:101E9000017010E0602B712BE214F30461F6918362
:101EA0008083338322835583448377836683389684
:101EB0005096A11581E0B80709F0ADCFDF91CF9121
:101EC0001F910F91FF90EF90DF90CF90BF909F9068
:101ED0008F907F906F905F904F903F902F900895DC
:101EE0000F930FB70F931F93EF93FF931127009159
:101EF000940003950F7000939400A1F40091930057
:101F0000039503700093930031F4009191000395C1
:101F10000093910000270894111F0A95EAF71BBD52
:101F200011271ABD07E00BBB0FE108BB00E005BBA2
:101F30000FEF02BB00E007B900B3009504700093F7
:101F4000920059F5EAE9F1E000919400000F000FCA
:101F5000000FE00FF11F00919300000FE00FF11F41
:101F600000810295069507700BBB01910F7108BBAC
:101F7000008102BBE0E6F0E000919400000FE00F6A
:101F8000F11F01911191E02FFF2700270894001FF6
:101F90001A95EAF71081102B1083FF91EF911F9192
:0C1FA0000F910FBF0F911895F894FFCF20
:101FAC003B033B043B053B063B072700270127026D
:101FBC003507350635053504350335023501350051
:101FCC0001030507090B0D0F0002040E0C0A08068D
:00000001FF
